:020000040800F2
:100000000000022079D20008C9D20008C9D2000835
:10001000C9D20008C9D20008C9D2000800000000F7
:10002000000000000000000000000000C9D200082D
:10003000C9D2000800000000C9D2000895180008C5
:10004000C9D20008C9D20008C9D20008C9D2000824
:10005000C9D20008C9D20008C9D20008C9D2000814
:10006000C9D20008C9D20008C9D20008C9D2000804
:10007000C9D20008C9D20008C9D20008C9D20008F4
:10008000C9D20008C9D20008C9D20008C9D20008E4
:10009000C9D20008C9D20008C9D20008C9D20008D4
:1000A000C9D20008C9D20008C9D20008C9D20008C4
:1000B000C9D20008C9D20008C9D20008C9D20008B4
:1000C000C9D20008C9D20008C9D20008C9D20008A4
:1000D000C9D20008C9D20008C9D20008C9D2000894
:1000E000C9D20008C9D20008C9D20008C9D2000884
:1000F000C9D20008C9D20008C9D20008C9D2000874
:10010000C9D20008C9D20008C9D20008C9D2000863
:10011000C9D20008C9D20008C9D20008C9D2000853
:10012000C9D20008C9D20008C9D20008C9D2000843
:10013000C9D20008C9D20008C9D20008C9D2000833
:10014000C9D20008C9D20008C9D20008A518000801
:10015000C9D20008C9D20008C9D20008C9D2000813
:10016000C9D20008C9D20008C9D20008C9D2000803
:10017000C9D20008C9D20008C9D200080000000096
:08018000C9D20008C9D2000831
:1001880010B5054C237833B9044B13B10448AFF3C9
:1001980000800123237010BDC8000020000000006B
:1001A800F4D4000808B5034B1BB103490348AFF367
:1001B800008008BD00000000CC000020F4D4000836
:1001C80053B94AB9002908BF00281CBF4FF0FF31B6
:1001D8004FF0FF3000F07AB9ADF1080C6DE904CEAC
:1001E80000F006F8DDF804E0DDE9022304B070470A
:1001F8002DE9F0478C460D460446089E002B51D148
:100208008A4217466DD9B2FA82FEBEF1000F0BD0B2
:10021800CEF1200C01FA0EF520FA0CFC02FA0EF7CA
:100228004CEA050C00FA0EF44FEA174A250CBCFB01
:10023800FAF81FFA87F90AFB18CC45EA0C4508FBBF
:1002480009F3AB420AD9ED1908F1FF3280F0238196
:10025800AB4240F22081A8F102083D44ED1AA4B255
:10026800B5FBFAF00AFB105544EA054400FB09F90E
:10027800A14509D9E41900F1FF3380F00A81A145AD
:1002880040F2078102383C44A4EB090440EA0840E4
:100298000021002E61D024FA0EF40023346073602C
:1002A800BDE8F0878B4207D9002E54D0002186E89C
:1002B80021000846BDE8F087B3FA83F1002940F031
:1002C8008E80AB4202D3824200F2FA80841A65EB38
:1002D80003050120AC46002E3FD086E81010BDE88B
:1002E800F08712B90127B7FBF2F7B7FA87FEBEF11C
:1002F800000F34D1EB1B3A0C1FFA87FC0121B3FB2A
:10030800F2F8250C02FB183345EA03450CFB08F309
:10031800AB4207D9ED1908F1FF3002D2AB4200F227
:10032800D1808046ED1AA3B2B5FBF2F002FB10555E
:1003380043EA05440CFB00FCA44507D9E41900F185
:10034800FF3302D2A44500F2B8801846A4EB0C048F
:1003580040EA08409DE731463046BDE8F087CEF1D7
:10036800200405FA0EF307FA0EF720FA04F83A0CFF
:1003780025FA04F448EA0308B4FBF2F14FEA1845F9
:1003880002FB11441FFA87FC45EA044501FB0CF304
:10039800AB4200FA0EF409D9ED1901F1FF3080F0F3
:1003A8008A80AB4240F2878002393D44EB1A1FFA3B
:1003B80088F5B3FBF2F002FB103345EA034500FB76
:1003C8000CF3AB4207D9ED1900F1FF386FD2AB42FD
:1003D8006DD902383D44EB1A40EA01418FE7C1F17B
:1003E800200722FA07F88B4005FA01F448EA0303CC
:1003F80020FA07FE4FEA134CFD404EEA040EB5FB07
:10040800FCF94FEA1E440CFB19551FFA83F844EA1D
:10041800054509FB08F4AC4202FA01F200FA01FAB8
:1004280008D9ED1809F1FF3043D2AC4241D9A9F1FE
:1004380002091D442D1B1FFA8EFEB5FBFCF00CFBB8
:1004480010554EEA054400FB08F8A04507D9E41802
:1004580000F1FF3529D2A04527D902381C4440EACB
:100468000940A4EB0804A0FB02894C45C6464D464A
:1004780015D312D056B1BAEB0E0364EB050404FA97
:1004880007F7CB401F43CC40376074600021BDE8BC
:10049800F0871846F8E69046E0E6C245EAD2B8EB9F
:1004A800020E69EB03050138E4E72846D7E7404622
:1004B80091E78146BEE7014678E702383C4445E7C4
:1004C800084608E7A8F102083D442BE7704700BF3B
:1004D80080B586B000AF7B600346FB810B46BB81CD
:1004E8001346FB7200237B6100F0E6FEFB89DBB25A
:1004F80001220221184600F001FB03461A467B69D7
:1005080013447B61BB89013B032B1BD801A252F822
:1005180023F000BF2D050008350500083D0500083B
:10052800450500085B4BFA221A700FE0594BAF22C1
:100538001A700BE0574BAA221A7007E0554B052298
:100548001A7003E0534B05221A7000BFFB89D8B21A
:10055800504B1B78DBB21A46042100F0CFFA034651
:100568001A467B6913447B61FB89DBB28122052132
:10057800184600F0C3FA03461A467B6913447B61A8
:10058800FB89DBB204220621184600F0B7FA0346BD
:100598001A467B6913447B61FA7AFB89114618462F
:1005A80000F064F902467B6913447B61BB89022B26
:1005B80023D0FB89DBB206220F21184600F09EFAF1
:1005C80003461A467B6913447B61FB89DBB2002230
:1005D8002421184600F092FA03461A467B69134410
:1005E8007B61FB89DBB200222521184600F086FAE0
:1005F80003461A467B6913447B61FB89DBB2002200
:100608000A21184600F07AFA03461A467B69134411
:100618007B61FB89DBB204220E21184600F06EFADA
:1006280003461A467B6913447B61FB89DBB20022CF
:100638002721184600F062FA03461A467B691344DC
:100648007B61FB89DBB20F221F21184600F056FAA6
:1006580003461A467B6913447B61FB89DBB20A2295
:100668001A21184600F04AFA03461A467B691344D1
:100678007B61FB89DBB20A221B21184600F03EFA97
:1006880003461A467B6913447B617B691846183711
:10069800BD4680BDE400002080B500AF00F044FEF8
:1006A80000BF80BD80B584B000AF0346FB8000F07A
:1006B80003FEFB88DBB20121184600F04FFE03461B
:1006C800FB73FB7B23F00703FB73FB7B1846103798
:1006D800BD4680BD80B584B000AF03463960FB805D
:1006E8001346BB800023FB60164B1B78012B23D1DC
:1006F800FB88DBB206220E21184600F0FFF90346FC
:100708001A46FB681344FB60FB880021184600F07A
:1007180019F90246FB681344FB60FB88DBB29E2292
:100728000221184600F0EAF903461A46FB6813440A
:10073800FB60044B00221A70FB6818461037BD4650
:1007480080BD00BF3000002080B584B000AF0346F4
:10075800FB800023FB60FB880121184600F0F2F8BB
:100768000246FB681344FB60FB88DBB201220221CE
:10077800184600F0C3F903461A46FB681344FB60A9
:10078800FB6818461037BD4680BD000080B584B0B0
:1007980000AF0346FB800023FB600023BB60FB889F
:1007A8000021184600F0CEF80246FB681344FB60AF
:1007B8000023BB6002E0BB680133BB60BB68FE2B53
:1007C800F9D9FB88D8B20E4B1B78DBB21A46042144
:1007D80000F094F903461A46FB681344FB60FB8853
:1007E800DBB29E220221184600F088F903461A4619
:1007F800FB681344FB60FB6818461037BD4680BD94
:10080800E400002080B584B000AF03463960FB8067
:100818000023FB60FB880121184600F093F802468C
:10082800FB681344FB60FB88DBB204220E211846E8
:1008380000F064F903461A46FB681344FB60FB8822
:10084800DBB29F220221184600F058F903461A46E7
:10085800FB681344FB60044B01221A70FB681846BE
:100868001037BD4680BD00BF3000002080B584B081
:1008780000AF03460A46FB8013467B710023FB60EA
:100888007B79642B0BD87A7913461B029B1A254A6D
:1008980082FB03125211DB17D31ADBB200E0FF23ED
:1008A800FB72FB7AE62B1CD9FB88D8B2FB7A19338A
:1008B800DBB21A46202100F021F903461A46FB68EC
:1008C8001344FB60FB88D8B2FB7A1933DBB21A46B3
:1008D800212100F013F903461A46FB681344FB6014
:1008E8001BE0FB88D8B2FB7A1933DBB21A46202109
:1008F80000F004F903461A46FB681344FB60FB88C2
:10090800D8B2FB7A1933DBB21A46212100F0F6F887
:1009180003461A46FB681344FB60FB681846103709
:10092800BD4680BD1F85EB5180B483B000AF034640
:100938003960FB80002318460C37BD465DF8047B00
:100948007047000080B584B000AF03463960FB8073
:100958000023FB603B68012B24D1FB88DBB2FF221C
:100968000421184600F0CAF803461A46FB681344E7
:10097800FB60FB88DBB201222221184600F0BEF89A
:1009880003461A46FB681344FB60FB88DBB201226E
:100998002321184600F0B2F803461A46FB681344B0
:1009A800FB6025E0FB88DBB200222221184600F01C
:1009B800A5F803461A46FB681344FB60FB88DBB2C4
:1009C80000222321184600F099F803461A46FB68CE
:1009D8001344FB60FB88D8B2084B1B78DBB21A467D
:1009E800042100F08BF803461A46FB681344FB60A9
:1009F800FB6818461037BD4680BD00BFE4000020E4
:100A080080B584B000AF03460A46FB8013467B716D
:100A18000023FB607B79013B032B4BD801A252F8E2
:100A280023F000BF3D0A00085D0A00087D0A00089F
:100A38009D0A0008FB88DBB2FA220421184600F060
:100A48005DF803461A46FB681344FB60244BFA2200
:100A58001A703FE0FB88DBB2AF220421184600F091
:100A68004DF803461A46FB681344FB601C4BAF2243
:100A78001A702FE0FB88DBB2AA220421184600F086
:100A88003DF803461A46FB681344FB60144BAA2240
:100A98001A701FE0FB88DBB205220421184600F01B
:100AA8002DF803461A46FB681344FB600C4B0522DD
:100AB8001A700FE0FB88DBB205220421184600F00B
:100AC8001DF803461A46FB681344FB60044B0522D5
:100AD8001A7000BFFB6818461037BD4680BD00BFBE
:100AE800E400002080B483B000AF0346FB800023FD
:100AF80018460C37BD465DF8047B704780B584B056
:100B080000AF0346FB710B46BB7113467B71002394
:100B1800FB607A79B979FB79184600F00CFCFB6820
:100B2800DBB218461037BD4680BD000080B58CB0DA
:100B380000AF0023BB61714A704B1B6B43F010037D
:100B480013636E4B1B6B03F01003BB61BB6900237F
:100B58007B616A4A694B1B6B43F004031363674B61
:100B68001B6B03F004037B617B6900233B61634AD1
:100B7800624B1B6B43F080031363604B1B6B03F0EA
:100B880080033B613B690023FB605C4A5B4B1B6B4A
:100B980043F001031363594B1B6B03F00103FB6024
:100BA800FB680023BB60554A544B1B6B43F00203A0
:100BB8001363524B1B6B03F00203BB60BB6800233B
:100BC8007B604E4A4D4B1B6B43F0080313634B4B42
:100BD8001B6B03F008037B607B68002208214848F0
:100BE80001F004FE01220121464801F0FFFD002228
:100BF8004FF21001444801F0F9FD0823FB6101237D
:100C08003B6200237B620023BB6207F11C03194689
:100C18003B4801F055FB0123FB6101233B620023A4
:100C28007B620023BB6207F11C031946354801F0BB
:100C380047FB0823FB6102233B6200237B620023FE
:100C4800BB620523FB6207F11C0319462D4801F01E
:100C580037FB0123FB612D4B3B6200237B6207F1CD
:100C68001C0319462A4801F02BFB0423FB610023CF
:100C78003B6200237B6207F11C031946254801F0FB
:100C88001FFB4FF48063FB6102233B6200237B62FE
:100C98000023BB620523FB6207F11C0319461D48AC
:100CA80001F00EFB4FF21003FB6101233B620023AE
:100CB8007B620023BB6207F11C031946124801F04E
:100CC800FFFA2023FB6100233B6200237B6207F1CC
:100CD8001C0319460C4801F0F3FA0223FB610B4B85
:100CE8003B6200237B6207F11C031946044801F0AC
:100CF800E7FA00BF3037BD4680BD00BF003802406C
:100D08000010024000080240000C024000001210CF
:100D1800000002400004024080B500AF134B144AA3
:100D28001A60124B134A5A60104B00229A600F4BFC
:100D38000022DA600D4B4FF480421A610B4B0022FF
:100D48005A610A4B00229A61084B0022DA61074B6C
:100D580000221A62054803F01DF90346002B03D050
:100D68004C21054800F052F900BF80BDF003002077
:100D780000540040A08601000CD5000880B588B05A
:100D880000AF78607B681B68124A93421ED14FF40B
:100D98001073FB6012233B6101237B610023BB615D
:100DA8000423FB6107F10C0319460B4801F088FA8C
:100DB8000023BB60094A094B1B6C43F400131364FE
:100DC800064B1B6C03F40013BB60BB6800BF2037E5
:100DD800BD4680BD00540040000402400038024077
:100DE80080B582B000AF78607B681B68084A934280
:100DF8000AD1084A074B1B6C23F4001313644FF401
:100E08001071054801F0F6FB00BF0837BD4680BDEC
:100E180000540040003802400004024080B588B009
:100E280000AF78607B681B681A4A93422ED1002372
:100E3800BB60194A184B1B6C43F400431364164BF0
:100E48001B6C03F40043BB60BB681023FB600223E8
:100E58003B6100237B610123BB610623FB6107F132
:100E68000C0319460D4801F02BFA4FF4A453FB600C
:100E780002233B6100237B610123BB610623FB61E5
:100E880007F10C031946064801F01AFA00BF20378B
:100E9800BD4680BD003C00400038024000000240D2
:100EA8000008024080B500AF00F008FE00F012F81C
:100EB800FFF73CFEFFF730FF00F0AEF80BF096FEB0
:100EC80006F072FA00F07CF800F028FD0BF0A4FEA2
:100ED800FCE7000080B594B000AF0023BB60344A43
:100EE800334B1B6C43F080531364314B1B6C03F082
:100EF8008053BB60BB6800237B602E4A2D4B1B6868
:100F080043F4804313602B4B1B6803F480437B60DE
:100F18007B6801233B624FF480337B620223BB630F
:100F28004FF48003FB6308233B644FF4A8737B648E
:100F38000223BB640723FB6407F12003184604F06F
:100F48005DFD0346002B03D0D5211B4800F05EF859
:100F58000F23FB6002233B6100237B614FF4A05306
:100F6800BB614FF48053FB6107F10C030521184660
:100F780004F086FF0346002B03D0E3210E4800F05F
:100F880045F805F037F902460C4BA3FB02239B09F1
:100F9800184600F026FF042000F030FF0022002150
:100FA8004FF0FF3000F0F3FE00BF5037BD4680BD64
:100FB800003802400070004020D50008D34D621070
:100FC80080B500AF0BF028FE00220C490C480AF04F
:100FD80083FE0346002BF5D10A220A490A480AF083
:100FE800C1FE0346002B00D0ECE700BF06480BF01B
:100FF80034FA04480BF0D7FC00BF80BD9C4C01209C
:101008007806002034D500084404002080B483B05A
:1010180000AF78603960FEE780B500AF184B194A19
:101028001A60174B4FF482725A60154B00229A606F
:10103800134B0022DA60124B00221A61104B002277
:101048005A610F4B4FF400729A610D4B0022DA611E
:101058000B4B00221A620A4B00225A62084B0022EC
:101068009A62074B0A22DA62054805F04DFA0346F0
:10107800002B03D04F210448FFF7C8FF00BF80BDF5
:10108800A80800200030014040D5000880B588B08D
:1010980000AF78607B681B68124A93421DD1002319
:1010A800BB60114A104B5B6C43F4805353640E4B86
:1010B8005B6C03F48053BB60BB68E023FB600223D6
:1010C8003B6100237B610023BB610523FB6107F1C2
:1010D8000C031946054801F0F3F800BF2037BD4658
:1010E80080BD00BF003001400038024000000240CF
:1010F80080B500AF0E4803F099FB0346002B14D1CE
:101108000B4B0C4A5A600A4B00229A60084B332258
:10111800DA60074B4FF480421A61054B064A1A60A1
:1011280000F076F8024802F035FF00BF80BD00BF2E
:10113800E8000020A08601000054004080B588B077
:1011480004AF0346FB710B46BB7113467B7100234A
:10115800FB73FB7999B2BB799AB20C4B1B6802936B
:10116800012301937B1D00930123094803F022F812
:101178000346FB73FB7B002B03D0FB79184600F07A
:1011880037F800BF1037BD4680BD00BF34000020CF
:10119800E800002080B588B004AF03460A46FB711A
:1011A8001346BB710023FB730023BB73FB7999B211
:1011B800BB799AB20C4B1B6802930123019307F188
:1011C8000E0300930123094803F0FEF80346FB735E
:1011D800FB7B002B03D0FB79184600F009F8BB7B9A
:1011E80018461037BD4680BD34000020E8000020B6
:1011F80080B582B000AF0346FB71044802F0AAFF35
:10120800FFF776FF00BF0837BD4680BDE800002025
:1012180080B588B000AF0023BB60254A244B1B6B08
:1012280043F002031363224B1B6B03F00203BB6002
:10123800BB684FF41073FB6012233B610223BB6150
:1012480000237B610423FB6107F10C03194619484D
:1012580001F036F800237B60154A154B1B6C43F4EC
:1012680000131364124B1B6C03F400137B607B6840
:101278000F4A0F4B1B6A43F4001313620C4A0C4BC2
:101288001B6A23F400131362002200211F2000F0C0
:101298007EFD1F2000F097FD00220021202000F095
:1012A80076FD202000F08FFD00BF2037BD4680BDB1
:1012B800003802400004024080B586B000AF002329
:1012C8003B60174A164B1B6B43F008031363144B20
:1012D8001B6B03F008033B603B6810237B60012312
:1012E800BB6002233B610023FB603B1D19460D4890
:1012F80000F0E6FFFFF7FCFE00221021094801F08C
:1013080075FA052000F04CFC01221021054801F077
:101318006DFA052000F044FC00BF1837BD4680BDBB
:1013280000380240000C024080B400AF00BFBD4648
:101338005DF8047B704780B582B000AF0346FB714F
:101348000B46BB7113467B717A79B979FB791846DC
:10135800FFF7F4FE00BF0837BD4680BD80B582B0F8
:1013680000AF03460A46FB711346BB71BA79FB7995
:1013780011461846FFF70EFF034618460837BD46C4
:1013880080BD000090B585B000AF03463A60FB8091
:101398000B467B710023FB73002239681C4800F060
:1013A8009FF81B4B1B4A1A60194803F055FF034668
:1013B800002B03D10021164800F0ECF8386800F043
:1013C800A9F90346002B01D00123FB73FB7B002BFB
:1013D8000ED1114B9B6894209847034603F0F803FD
:1013E800E02B03D10D4B0C4A1A6001E00123FB737B
:1013F800FB7B002B07D1094B1B681C687A79F9889D
:101408003B689420A047FB7B18461437BD4690BD27
:10141800A4090020003C0040000000203C010020FE
:1014280080B582B000AF78603960104B1B68DB680C
:101438003A6892B27968942098470346002B01D005
:1014480001230FE03B68B3F5003F03D23B685B081C
:101458009BB201E04FF6FF731A467968044803F01F
:1014680063FE002318460837BD4680BD3C010020B6
:10147800A409002080B582B000AF78600B467B805D
:101488007B881A467968034803F04EFE00BF083788
:10149800BD4680BDA409002080B582B000AF786049
:1014A8007B681B68044A934201D100F0F3FA00BF3D
:1014B8000837BD4680BD00BF003C004080B582B003
:1014C80000AF78607B681B68044A934201D100F042
:1014D800D5FA00BF0837BD4680BD00BF003C0040BC
:1014E80080B58AB000AFF860B9607A60002387F8E9
:1014F8002730FF2387F82630002387F8273010E0AD
:1015080097F82730204A52F82320BB689A4203D123
:1015180097F8273087F8263097F82730013387F86F
:10152800273097F82730072BEAD907F11403184614
:1015380004F062FF97F8263003F00703002B13D15D
:1015480001237B6197F82630104A52F82330BB619B
:1015580097F826300E4A52F82330FB6107F114033E
:10156800184604F067FE0BE001237B614FF481739A
:10157800BB610323FB6107F11403184604F05AFE0C
:1015880000BF2837BD4680BDDCD50008FCD5000863
:101598001CD6000880B58CB000AF78603960002395
:1015A800BB61564A554B1B6C43F400431364534BC1
:1015B8001B6C03F40043BB61BB6900237B614F4A8A
:1015C8004E4B1B6B43F0040313634C4B1B6B03F034
:1015D80004037B617B6900233B61484A474B1B6BD3
:1015E80043F001031363454B1B6B03F001033B619D
:1015F8003B694FF4A053FB6102233B6200237B62EB
:101608000223BB620623FB6207F11C0319463C4810
:1016180000F056FE1023FB6107F11C0319463948F8
:1016280000F04EFE0023FB60344A344B1B6B43F042
:1016380004031363314B1B6B03F00403FB60FB686B
:101648008023FB6107F11C0319462D4800F038FE82
:101658000023BB60294A294B1B6B43F40013136317
:10166800264B1B6B03F40013BB60BB687B681B68CD
:10167800254A934236D1254B00225A60234B4022FB
:101688009A60224B0022DA60204B4FF480621A6184
:101698001E4B4FF400625A611C4B4FF400529A6182
:1016A8001A4B0022DA61194B4FF400321A62174BB9
:1016B80004225A62154B03229A62144B0022DA6202
:1016C800124B00221A63114B114A1A607B680F4AA9
:1016D8009A630E4A7B6893630C4800F067FC0B48DA
:1016E80000F0B6FB00220E212F2000F050FB2F2027
:1016F80000F069FB00BF3037BD4680BD00380240AE
:101708000008024000000240003C00404001002068
:10171800B860024080B582B000AF7860174B184AB5
:101728001A60164B1A68154B1B68D9694FF6FF33B8
:101738000B40D361114A7B685361104B0022DA6178
:101748000E4B00229A610D4B0022DA600B4B4FF4CE
:1017580000721A61094B4FF400725A60074B00225D
:101768009A60064803F090FB0346002B01D0012342
:1017780000E0002318460837BD4680BDA4090020B4
:10178800003C004080B582B000AF786000F004F8FB
:1017980000BF0837BD4680BD80B400AF00BFBD465E
:1017A8005DF8047B704780B400AF00BFBD465DF8AC
:1017B800047B704780B582B000AF78607B681B6897
:1017C800074A934201D100F075F97B681B68054A06
:1017D800934201D1FFF7E7FF00BF0837BD4680BD40
:1017E800003C00400038004080B582B000AF0023C4
:1017F8007B60254A244B5B6C43F480435364224B43
:101808005B6C03F480437B607B6800233B601E4A6B
:101818001D4B1B6C43F0805313641B4B1B6C03F074
:1018280080533B603B68072000F0A6FA00220021A5
:101838006FF00B0000F0ABFA002200216FF00A00F5
:1018480000F0A5FA002200216FF0090000F09FFACD
:10185800002200216FF0040000F099FA0022002114
:101868006FF0030000F093FA002200216FF00100EE
:1018780000F08DFA002200214FF0FF3000F087FAC7
:1018880000BF0837BD4680BD0038024080B500AFB4
:1018980000F066F900F0CEFA00BF80BD80B500AF59
:1018A800024801F045FA00BF80BD00BFCC540120BA
:1018B80080B400AF164A164BD3F8883043F470034F
:1018C800C2F88830134A134B1B6843F001031360B6
:1018D800104B00229A600F4A0E4B1B6823F084734A
:1018E80023F4803313600B4B0B4A5A60094A094BA7
:1018F8001B6823F480231360064B0022DA60044B34
:101908004FF000629A6000BFBD465DF8047B7047E7
:1019180000ED00E0003802401030002480B58EB0A1
:1019280000AF00237B63114B3B6307F1300319467B
:101938000F480AF0C5FF0346002B12D101220D49BA
:101948000D480AF00FFA07F13403391D2C220A4812
:101958000AF0C6FBBB68094A13604FF4FA5000F05E
:101968000FF800BF3837BD4680BD00BF303A2F00A2
:10197800344A012054D50008684A0120A0010020FB
:1019880080B584B000AF78600023FB604FF4FA5252
:101998003C210320FFF7F6FC0346002B03D063210C
:1019A8002E48FFF733FB00212D480AF080FD07F190
:1019B8000C034FF4A0322B4929480AF091FB2A4B1B
:1019C8001A68FB68D31A294A13604FF4A0312548D6
:1019D800FFF726FD0346002B37D101224FF4805133
:1019E800234800F003FF30E00023FB60214B1B7805
:1019F800DBB2012B0AD107F10C034FF4204219493D
:101A080017480AF06DFB1B4B00221A70194B1B7804
:101A1800DBB2022B0AD107F10C034FF4204216491E
:101A28000F480AF05DFB134B00221A700F4B1B681E
:101A3800B3F5204F06D90D4B1A68FB68D31A0B4A29
:101A4800136002E0094B00221A60084B1B68002B48
:101A5800CAD100BF1037BD4680BD00BF60D50008A1
:101A6800684A0120340A0020A0010020A4010020B7
:101A7800000C0240A801002034AA002080B400AF66
:101A8800034B01221A7000BFBD465DF8047B704706
:101A9800A801002080B500AF044B02221A704FF451
:101AA80020410348FFF7E6FC00BF80BDA8010020E5
:101AB800340A002080B400AFFEE7000080B500AF14
:101AC8000E4A0E4B1B6843F4007313600B4A0B4B12
:101AD8001B6843F480631360084A084B1B6843F48F
:101AE80080731360032000F047F9002000F008F825
:101AF800FFF77AFE0023184680BD00BF003C024075
:101B080080B582B000AF7860124B1A68124B1B7810
:101B180019464FF47A73B3FBF1F3B2FBF3F31846AB
:101B280000F05FF90346002B01D001230EE07B682B
:101B38000F2B0AD8002279684FF0FF3000F027F900
:101B4800064A7B681360002300E001231846083723
:101B5800BD4680BD38000020400000203C00002029
:101B680080B400AF064B1B781A46064B1B6813441B
:101B7800044A136000BFBD465DF8047B704700BF90
:101B880040000020984C012080B400AF034B1B6834
:101B98001846BD465DF8047B704700BF984C01208D
:101BA80080B584B000AF7860FFF7EEFFB8607B685F
:101BB800FB60FB68B3F1FF3F05D0094B1B781A4661
:101BC800FB681344FB6000BFFFF7DEFF0246BB68FB
:101BD800D21AFB689A42F7D300BF1037BD4680BDC2
:101BE8004000002080B485B000AF78607B6803F0C7
:101BF8000703FB600C4BDB68BB60BA684FF6FF035A
:101C08001340BB60FB681A02BB68134343F0BF6311
:101C180043F40033BB60044ABB68D36000BF143789
:101C2800BD465DF8047B704700ED00E080B400AF6E
:101C3800044BDB681B0A03F007031846BD465DF832
:101C4800047B704700ED00E080B483B000AF03462A
:101C5800FB71094997F907305B09FA7902F01F020D
:101C6800012000FA02F241F8232000BF0C37BD46DC
:101C78005DF8047B704700BF00E100E080B483B0EA
:101C880000AF03463960FB7197F90730002B0BDA78
:101C98000D49FB7903F00F03043B3A68D2B21201F5
:101CA800D2B20B441A7609E0084997F907303A6826
:101CB800D2B21201D2B20B4483F8002300BF0C3712
:101CC800BD465DF8047B704700ED00E000E100E0F0
:101CD80080B489B000AFF860B9607A60FB6803F03F
:101CE8000703FB61FB69C3F10703042B28BF042327
:101CF800BB61FB690433062B02D9FB69033B00E097
:101D080000237B610122BB6902FA03F35A1EBB68F8
:101D18001A407B699A4001217B6901FA03F3591E35
:101D28007B680B40134318462437BD465DF8047B97
:101D38007047000080B582B000AF78607B68013BD7
:101D4800B3F1807F01D301230FE00A4A7B68013B8E
:101D580053600F214FF0FF30FFF790FF054B002233
:101D68009A60044B07221A60002318460837BD46BC
:101D780080BD00BF10E000E080B582B000AF7860A1
:101D88007868FFF72FFF00BF0837BD4680BD80B5D4
:101D980086B000AF0346B9607A60FB7300237B61AD
:101DA800FFF744FF78617A68B9687869FFF790FFB0
:101DB800024697F90F3011461846FFF75FFF00BF3C
:101DC8001837BD4680BD80B582B000AF0346FB71B1
:101DD80097F907301846FFF737FF00BF0837BD46A9
:101DE80080BD80B582B000AF78607868FFF7A2FF49
:101DF800034618460837BD4680BD000080B483B04E
:101E080000AF78607B68042B06D1094A084B1B6831
:101E180043F00403136005E0054A054B1B6823F0F3
:101E28000403136000BF0C37BD465DF8047B7047A0
:101E380010E000E080B500AF00F002F800BF80BD00
:101E480080B400AF00BFBD465DF8047B704700005A
:101E580080B586B000AF786000237B61FFF794FE01
:101E680038617B68002B01D1012399E07B6800224F
:101E780083F834207B68022283F835207B681B684E
:101E88007A681268126822F001021A600FE0FFF700
:101E98007BFE02463B69D31A052B08D97B682022B2
:101EA8005A657B68032283F83520032378E07B6832
:101EB8001B681B6803F00103002BE8D17B681B68D3
:101EC8001B687B617A69384B13407B617B685A6871
:101ED8007B689B681A437B68DB681A437B681B69CD
:101EE8001A437B685B691A437B689B691A437B6862
:101EF800DB691A437B681B6A13437A6913437B6166
:101F08007B685B6A042B07D17B68DA6A7B681B6B8A
:101F180013437A6913437B617B681B687A691A608B
:101F28007B681B685B697B617B6923F007037B61C6
:101F38007B685B6A7A6913437B617B685B6A042B05
:101F480017D17B689B6A7A6913437B617B68DB6A7C
:101F5800002B0ED0786800F039F90346002B08D022
:101F68007B6840225A657B68012283F8352001236B
:101F780016E07B681B687A695A61786800F0F0F8A7
:101F88000346FB607B68DB6D3F229A40FB689A60E2
:101F98007B6800225A657B68012283F8352000237C
:101FA80018461837BD4680BD3F8010F080B584B014
:101FB80000AF78607B68002B01D101233EE07B688D
:101FC80093F83530DBB2022B01D1022336E07B686F
:101FD8001B687A681268126822F001021A607B682E
:101FE8001B6800221A607B681B6800225A607B68A5
:101FF8001B6800229A607B681B680022DA607B6895
:102008001B6800221A617B681B6821225A61786864
:1020180000F0A6F80346FB607B68DB6D3F229A4020
:10202800FB689A607B6800225A657B68002283F807
:1020380035207B68002283F83420002318461037A7
:10204800BD4680BD80B586B000AFF860B9607A60E3
:102058003B600023FB75FB689B6D3B61FB6893F855
:102068003430012B01D1022348E0FB68012283F8B8
:102078003420FB6893F83530DBB2012B37D1FB688D
:10208800022283F83520FB6800225A653B687A688B
:10209800B968F86800F036F8FB68DB6D3F229A40B3
:1020A8003B699A60FB681B68FA681268126842F01C
:1020B80016021A60FB681B68FA681268526942F0D7
:1020C80080025A61FB681B6C002B07D0FB681B68F9
:1020D800FA681268126842F008021A60FB681B6806
:1020E800FA681268126842F001021A6005E0FB689B
:1020F800002283F834200223FB75FB7D184618372D
:10210800BD4680BD80B485B000AFF860B9607A6024
:102118003B60FB681B68FA681268126822F4802228
:102128001A60FB681B683A685A60FB689B68402B1A
:1021380008D1FB681B687A689A60FB681B68BA68F4
:10214800DA6007E0FB681B68BA689A60FB681B687E
:102158007A68DA6000BF1437BD465DF8047B7047C3
:1021680080B485B000AF78607B681B68DBB2103B39
:10217800144AA2FB03231B09FB60134AFB681344A0
:102188001B781A467B68DA65FB68032B09D97B68DC
:102198001B6823F47F7323F003031A1D7B689A6579
:1021A80007E07B681B6823F47F7323F003037A68D6
:1021B80093657B689B6D18461437BD465DF8047BB4
:1021C800704700BFABAAAAAA54D6000880B485B04D
:1021D80000AF78600023FB737B689B6ABB607B68F9
:1021E8009B69002B1FD1BB68032B55D801A252F85D
:1021F80023F000BF0D2200081F2200080D2200084E
:10220800A12200087B68DB6A03F08073002B45D0AD
:102218000123FB7342E07B68DB6AB3F1C07F3FD1E7
:102228000123FB733CE07B689B69B3F5005F21D118
:10223800BB68032B36D801A252F823F055220008B8
:102248005B220008552200086D2200080123FB7359
:102258002FE07B68DB6A03F08073002B24D0012316
:10226800FB7321E07B68DB6AB3F1C07F1ED10123D9
:10227800FB731BE0BB68022B02D9032B03D018E0C9
:102288000123FB7315E07B68DB6A03F08073002B86
:102298000ED00123FB730BE000BF0AE000BF08E08B
:1022A80000BF06E000BF04E000BF02E000BF00E09E
:1022B80000BFFB7B18461437BD465DF8047B7047AA
:1022C80080B489B000AF7860396000237B61002357
:1022D8003B610023BB610023FB616BE10122FB69C9
:1022E80002FA03F37B613B681A687B6913403B6120
:1022F8003A697B699A4240F05A813B685B68022BD5
:1023080003D03B685B68122B23D1FB69DA087B6832
:10231800083253F82230BB61FB6903F007039B00C6
:102328000F2202FA03F3DB43BA691340BB613B682F
:102338001A69FB6903F007039B0002FA03F3BA6901
:102348001343BB61FB69DA087B680832B96943F853
:1023580022107B681B68BB61FB695B00032202FAE1
:1023680003F3DB43BA691340BB613B685B6803F066
:102378000302FB695B0002FA03F3BA691343BB610A
:102388007B68BA691A603B685B68012B0BD03B68B5
:102398005B68022B07D03B685B68112B03D03B6856
:1023A8005B68122B30D17B689B68BB61FB695B0063
:1023B800032202FA03F3DB43BA691340BB613B68AB
:1023C800DA68FB695B0002FA03F3BA691343BB617D
:1023D8007B68BA699A607B685B68BB610122FB69AC
:1023E80002FA03F3DB43BA691340BB613B685B68DD
:1023F8001B0903F00102FB6902FA03F3BA691343EC
:10240800BB617B68BA695A607B68DB68BB61FB6942
:102418005B00032202FA03F3DB43BA691340BB6192
:102428003B689A68FB695B0002FA03F3BA691343D5
:10243800BB617B68BA69DA603B685B6803F080530C
:10244800002B00F0B4800023FB605F4A5E4B5B6C9E
:1024580043F4804353645C4B5B6C03F48043FB6040
:10246800FB685A4AFB699B08023352F82330BB6168
:10247800FB6903F003039B000F2202FA03F3DB431B
:10248800BA691340BB617B68514A93422BD07B6881
:10249800504A934225D07B684F4A93421FD07B68AD
:1024A8004E4A934219D07B684D4A934213D07B68B9
:1024B8004C4A93420DD07B684B4A934207D07B68C5
:1024C8004A4A934201D107230EE008230CE0062371
:1024D8000AE0052308E0042306E0032304E00223BE
:1024E80002E0012300E00023FA6902F003029200EF
:1024F8009340BA691343BB613449FB699B080233B3
:10250800BA6941F823203A4B1B68BB613B69DB433E
:10251800BA691340BB613B685B6803F48033002BE6
:1025280003D0BA693B691343BB61314ABB69136085
:102538002F4B5B68BB613B69DB43BA691340BB61E6
:102548003B685B6803F40033002B03D0BA693B692E
:102558001343BB61264ABB695360254B9B68BB612B
:102568003B69DB43BA691340BB613B685B6803F4B2
:102578008013002B03D0BA693B691343BB611C4A23
:10258800BB6993601A4BDB68BB613B69DB43BA6983
:102598001340BB613B685B6803F40013002B03D056
:1025A800BA693B691343BB61114ABB69D360FB69D4
:1025B8000133FB61FB690F2B7FF690AE00BF243718
:1025C800BD465DF8047B7047003802400038014082
:1025D800000002400004024000080240000C0240D3
:1025E800001002400014024000180240001C024083
:1025F800003C014080B487B000AF786039600023A8
:102608003B610023FB600023BB6000237B61CEE0BD
:1026180001227B6902FA03F33B613A683B69134084
:10262800FB60FA683B699A4240F0BE807B681A6892
:102638007B695B00032101FA03F3DB431A407B68E3
:102648001A607B69DA087B69D9087B68083153F816
:1026580021107B6903F007039B000F2000FA03F3A6
:10266800DB4319407B68083243F822107B689A687C
:102678007B695B00032101FA03F3DB431A407B68A3
:102688009A607B685A6801217B6901FA03F3DB438E
:102698001A407B685A607B68DA687B695B000321B3
:1026A80001FA03F3DB431A407B68DA60454A7B6929
:1026B8009B08023352F82330BB607B6903F00303A5
:1026C8009B000F2202FA03F3BA681340BB607B68D1
:1026D8003D4A93422BD07B683C4A934225D07B6885
:1026E8003B4A93421FD07B683A4A934219D07B6891
:1026F800394A934213D07B68384A93420DD07B689D
:10270800374A934207D07B68364A934201D1072360
:102718000EE008230CE006230AE0052308E0042362
:1027280006E0032304E0022302E0012300E0002383
:102738007A6902F00302920003FA02F2BB689A4235
:1027480032D17B6903F003039B000F2202FA03F3E3
:10275800BB601C487B699B081A497A699208023257
:1027680051F82210BA68D2430A40023340F82320B5
:102778001D491D4B1A68FB68DB4313400B601A495F
:10278800194B5A68FB68DB4313404B601649164BDC
:102798009A68FB68DB4313408B601349124BDA6875
:1027A800FB68DB431340CB607B6901337B617B694A
:1027B8000F2B7FF62DAF00BF1C37BD465DF8047B9D
:1027C800704700BF0038014000000240000402408A
:1027D80000080240000C02400010024000140240B1
:1027E80000180240001C0240003C014080B483B045
:1027F80000AF78600B467B8013467B707B78002B9C
:1028080003D07A887B689A6103E07B881A047B6826
:102818009A6100BF0C37BD465DF8047B7047F0B580
:102828008DB00AAF78607B68002B01D101233EE0B0
:102838007B68032283F8912278680AF025FA7B687E
:102848001B68184603F025FF7B681B683B607E68A1
:102858006D4606F110040FCC0FC50FCC0FC594E8D8
:10286800030085E80300331D0ECB386803F0AFFE84
:102878007B681B680121184603F01CFF7B681B68F6
:102888003B607E686D4606F110040FCC0FC50FCC77
:102898000FC594E8030085E80300331D0ECB3868A4
:1028A80004F02CF87B68012283F891220023184653
:1028B8000C37BD46F0BD90B589B004AF78600846C6
:1028C80011461A460346FB700B46BB7013467B70D5
:1028D8000023FB737B6893F89032012B01D102230C
:1028E8006CE07B68012283F89022FA7879681346B5
:1028F8009B001344DB000B4438337A781A70FA785B
:10290800796813469B001344DB000B4440333A8D2F
:102918001A80FA78796813469B001344DB000B444D
:102928003933FA781A70FA78796813469B00134499
:10293800DB000B443F3397F824201A70FA78BB78F1
:1029480003F07F03D8B2796813469B001344DB0079
:102958000B443A3302461A70FA7897F90230DBB220
:10296800DB09DBB21846796813469B001344DB0089
:102978000B443B3302461A70FA78796813469B0079
:102988001344DB000B443C3397F820201A707B6813
:1029980018687C78BA78F9783B8D029397F82430D8
:1029A800019397F820300093234604F00BF903466F
:1029B800FB737B68002283F89022FB7B1846143750
:1029C800BD4690BD80B584B000AF78600B46FB7003
:1029D8000023FB737B6893F89032012B01D102230B
:1029E8000FE07B68012283F890227B681B68FA78E5
:1029F8001146184604F02FFB7B68002283F89022CA
:102A0800FB7B18461037BD4680BD000080B582B0FC
:102A180000AF7860084611461A460346FB700B461D
:102A2800BB7013467B70FA78796813469B00134491
:102A3800DB000B443B33BA781A70FA78796813468E
:102A48009B001344DB000B443F337A781A703B7CBD
:102A5800002B0AD1FA78796813469B001344DB00EF
:102A68000B44423303221A7009E0FA787968134656
:102A78009B001344DB000B44423302221A707B781C
:102A8800032B00F2048101A252F823F0A52A0008C2
:102A98007B2C00083D2B0008F12B00083B7C012B08
:102AA80040F0F280BB78002B40F0EE803B8B002B8F
:102AB80009D1FA78796813469B001344DB000B446C
:102AC800513301221A70FA78796813469B0013442F
:102AD800DB000B4451331B78002B0AD1FA78796854
:102AE80013469B001344DB000B44423300221A7048
:102AF80009E0FA78796813469B001344DB000B441D
:102B0800423302221A70FA78796813469B001344FC
:102B1800DB000B445C331B78022B00F0B580FA789D
:102B2800796813469B001344DB000B443D333A7F1E
:102B38001A70A9E0BB78002B35D1FA78796813466A
:102B48009B001344DB000B4451331B78002B0AD144
:102B5800FA78796813469B001344DB000B44423330
:102B680000221A7009E0FA78796813469B0013442A
:102B7800DB000B44423302221A70FA787968134654
:102B88009B001344DB000B445C331B78022B7DD085
:102B9800FA78796813469B001344DB000B443D33F5
:102BA8003A7F1A7072E0FA78796813469B001344EA
:102BB800DB000B4450331B78002B0AD1FA78796874
:102BC80013469B001344DB000B44423300221A7067
:102BD8005CE0FA78796813469B001344DB000B44E9
:102BE800423302221A7051E0BB78002B20D1FA78C8
:102BF800796813469B001344DB000B4451331B7860
:102C0800002B0AD1FA78796813469B001344DB003D
:102C18000B44423300221A7039E0FA787968134677
:102C28009B001344DB000B44423302221A702EE04F
:102C3800FA78796813469B001344DB000B44503341
:102C48001B78002B0AD1FA78796813469B00134445
:102C5800DB000B44423300221A7018E0FA787968D6
:102C680013469B001344DB000B44423302221A70C4
:102C78000DE0FA78796813469B001344DB000B4497
:102C8800423300221A7002E000BF00E000BFFA7869
:102C9800796813469B001344DB000B4444337A697C
:102CA8001A60FA78398B786813469B001344DB0066
:102CB800034448331960FA78796813469B00134433
:102CC800DB000B445C3300221A70FA7879681346EB
:102CD8009B001344DB000B444C3300221A60FA7843
:102CE800796813469B001344DB000B443933FA78A8
:102CF8001A70FA78796813469B001344DB000B447A
:102D08005D3300221A707B681868FA7813469B00B6
:102D18001344DB0038337A68D1187B681B69DBB24F
:102D28001A4604F04BF8034618460837BD4680BDDE
:102D380080B586B000AF78607B681B683B61002374
:102D48007B610023FB607B681B68184603F093FDDA
:102D58000346012B40F0E9807B681B68184603F0A6
:102D680075FD0346002B00F0DF807B681B68184662
:102D780003F06CFD034603F40013B3F5001F04D100
:102D88007B681B684FF400125A617B681B68184601
:102D980003F05CFD034603F48013B3F5801F04D1F0
:102DA8007B681B684FF480125A617B681B68184661
:102DB80003F04CFD034603F08063B3F1806F04D148
:102DC8007B681B684FF080625A617B681B681846F5
:102DD80003F03CFD034603F00203022B03D17B689A
:102DE8001B6802225A617B681B68184603F02EFD97
:102DF800034603F00053B3F1005F18D13B6903F5B4
:102E080088631A463B6903F588631B6823F02E0321
:102E18001360786809F0A0FF7B681B6801211846D9
:102E280003F018FE7B681B684FF000525A617B68FC
:102E38001B68184603F00AFD034603F08073B3F1DC
:102E4800807F02D1786801F01BF87B681B68184600
:102E580003F0FCFC034603F00803082B06D178684E
:102E680009F05EFF7B681B6808225A617B681B6853
:102E7800184603F0EBFC034603F00073B3F1007F40
:102E880034D17B681B68184604F0D6F8F860002334
:102E98007B6121E001227B699A40FB681340002B8B
:102EA80017D07B695A013B69134403F5A0631B687B
:102EB80003F40043002B06D07B69DBB2194678681F
:102EC80000F0CAF805E07B69DBB21946786800F0C3
:102ED80003FC7B6901337B617B689A687B699A4252
:102EE800D8D87B681B684FF000725A617B681B68F2
:102EF800184603F0ABFC034603F01003102B14D163
:102F08007B681B687A681268926922F010029A61DD
:102F1800786800F003FF7B681B687A68126892691A
:102F280042F010029A6100E000BF1837BD4680BD2C
:102F380080B582B000AF78607B6893F89032012B3F
:102F480001D1022313E07B68012283F890227B6879
:102F58001B68184603F08CFB7B681B680121184628
:102F680003F0D7FD7B68002283F8902200231846DF
:102F78000837BD4680BD80B582B000AF78607B68F9
:102F880093F89032012B01D102230DE07B680122D6
:102F980083F890227B681B68184604F081F97B68E7
:102FA800002283F89022002318460837BD4680BDCA
:102FB80080B582B000AF78607B681B68184603F064
:102FC80083FD034618460837BD4680BD80B483B0EC
:102FD80000AF78600B46FB70FA78796813469B005F
:102FE8001344DB000B445C331B7818460C37BD4692
:102FF8005DF8047B704780B483B000AF78600B46FF
:10300800FB70FA78796813469B001344DB000B4485
:103018004C331B6818460C37BD465DF8047B704777
:1030280080B582B000AF78607B681B68184603F0F3
:10303800BAFD034618460837BD4680BD80B582B044
:1030480000AF78607B681B68184603F099FD03465B
:1030580018460837BD4680BD90B585B000AF78608A
:103068000B46FB707B681B68FB600023BB60FB782A
:103078005A01FB68134403F5A0639B6803F004033B
:10308800002B1AD0FB785A01FB68134403F5A063A0
:103098001A4604239360FB785A01FB68134403F52E
:1030A800A0631946FB785A01FB68134403F5A06333
:1030B800DB6843F00203CB6094E0FB785A01FB68BD
:1030C800134403F5A0639B6803F02003002B09D089
:1030D800FB785A01FB68134403F5A0631A462023C2
:1030E80093607FE0FB785A01FB68134403F5A06303
:1030F8009B6803F00803002B34D0FB785A01FB6867
:10310800134403F5A0631946FB785A01FB6813447E
:1031180003F5A063DB6843F00203CB60FA787968B3
:1031280013469B001344DB000B445D3305221A70E1
:10313800FB785A01FB68134403F5A0631A46102371
:103148009360FB785A01FB68134403F5A0631A46A1
:10315800082393607B681B68FA781146184603F0C9
:103168007AFF3FE0FB785A01FB68134403F5A0633C
:103178009B6803F48063002B34D0FB785A01FB680A
:10318800134403F5A0631946FB785A01FB681344FE
:1031980003F5A063DB6843F00203CB607B681B6820
:1031A800FA781146184603F056FFFB785A01FB6877
:1031B800134403F5A0631A4610239360FA787968DC
:1031C80013469B001344DB000B445D3308221A703E
:1031D800FB785A01FB68134403F5A0631A464FF4C1
:1031E80080639360FB785A01FB68134403F5A0637E
:1031F8009B6803F40073002B22D0FB785A01FB680C
:10320800134403F5A0631946FB785A01FB6813447D
:1032180003F5A063DB6843F00203CB607B681B689F
:10322800FA781146184603F016FFFB785A01FB6836
:10323800134403F5A0631A464FF40073936047E202
:10324800FB785A01FB68134403F5A0639B6803F0FD
:103258000103002B00F0C0807B681B69002B1BD08A
:10326800FA78F97878680B469B000B44DB00034436
:1032780048331968FB785801FB68034403F5A063D9
:103288001B69C3F31203C91A786813469B001344D9
:10329800DB0003444C331960FA78796813469B00C5
:1032A8001344DB000B445D3301221A70FA78796805
:1032B80013469B001344DB000B44583300221A606A
:1032C800FB785A01FB68134403F5A0631A460123EF
:1032D8009360FA78796813469B001344DB000B442B
:1032E8003F331B78002B0AD0FA78796813469B0085
:1032F8001344DB000B443F331B78022B21D1FB78AE
:103308005A01FB68134403F5A0631946FB785A0178
:10331800FB68134403F5A063DB6843F00203CB604A
:103328007B681B68FA781146184603F094FEFB7810
:103338005A01FB68134403F5A0631A4610239360EF
:1033480033E0FA78796813469B001344DB000B449A
:103358003F331B78032B28D1FB785A01FB681344B1
:1033680003F5A0631946FB785A01FB68134403F57B
:10337800A0631B6843F000530B60FA787968134622
:103388009B001344DB000B445C3301221A70FA786B
:10339800796813469B001344DB000B445C331A78AE
:1033A800FB781946786809F0E5FCFA78F9787868C6
:1033B8000B469B000B44DB00034450331B7883F01F
:1033C8000103D8B2796813469B001344DB000B4411
:1033D800503302461A707BE1FB785A01FB681344AC
:1033E80003F5A0639B6803F00203002B00F0B7808D
:1033F800FB785A01FB68134403F5A0631946FB7870
:103408005A01FB68134403F5A063DB6823F0020349
:10341800CB60FA78796813469B001344DB000B44B1
:103428005D331B78012B0AD1FA78796813469B0023
:103438001344DB000B445C3301221A7077E0FA78FE
:10344800796813469B001344DB000B445D331B78FB
:10345800052B0AD1FA78796813469B001344DB00E0
:103468000B445C3305221A7061E0FA7879681346D8
:103478009B001344DB000B445D331B78062B0AD0FA
:10348800FA78796813469B001344DB000B445D33DC
:103498001B78082B4BD1FA78796813469B001344A4
:1034A800DB000B4458331968481C7C6813469B00A2
:1034B8001344DB00234458331860032914D9FA78DD
:1034C800796813469B001344DB000B4458330022F1
:1034D8001A60FA78796813469B001344DB000B44A2
:1034E8005C3304221A7009E0FA78796813469B0065
:1034F8001344DB000B445C3302221A70FB785A0138
:10350800FB68134403F5A0631B68BB60BB6823F02A
:103518008043BB60BB6843F00043BB60FB785A0143
:10352800FB68134403F5A0631A46BB681360FB7875
:103538005A01FB68134403F5A0631A4602239360FB
:10354800FA78796813469B001344DB000B445C331C
:103558001A78FB781946786809F00CFCB8E0FB7813
:103568005A01FB68134403F5A0639B6803F08003CA
:10357800002B3DD0FB785A01FB68134403F5A06388
:103588001946FB785A01FB68134403F5A063DB680E
:1035980043F00203CB60FA78796813469B00134422
:1035A800DB000B4458331B68591C786813469B0092
:1035B8001344DB00034458331960FA7879681346DA
:1035C8009B001344DB000B445D3306221A707B68B2
:1035D8001B68FA781146184603F03DFDFB785A013E
:1035E800FB68134403F5A0631A46802393606FE0D9
:1035F800FB785A01FB68134403F5A0639B6803F04A
:103608001003002B64D0FA78796813469B001344A2
:10361800DB000B443F331B78032B17D1FB785A018F
:10362800FB68134403F5A0631946FB785A01FB684D
:10363800134403F5A063DB6843F00203CB607B68A7
:103648001B68FA781146184603F005FDFA78796880
:1036580013469B001344DB000B445D3303221A70AE
:10366800FB785A01FB68134403F5A0631A4610233C
:103678009360FA78796813469B001344DB000B4487
:103688003F331B78002B0AD0FA78796813469B00E1
:103698001344DB000B443F331B78022B18D1FB7813
:1036A8005A01FB68134403F5A0631B68BB60BB6841
:1036B80023F08043BB60BB6843F00043BB60FB78EA
:1036C8005A01FB68134403F5A0631A46BB681360EC
:1036D80000BF1437BD4690BD90B585B000AF786087
:1036E8000B46FB707B681B68FB60FB785A01FB6824
:1036F800134403F5A0639B6803F00403002B1AD05E
:10370800FB785A01FB68134403F5A0631A460423A7
:103718009360FB785A01FB68134403F5A0631946CC
:10372800FB785A01FB68134403F5A063DB6843F098
:103738000203CB60EDE2FB785A01FB68134403F502
:10374800A0639B6803F02003002B41D0FB785A014B
:10375800FB68134403F5A0631A4620239360FA78A4
:10376800796813469B001344DB000B443D331B78F8
:10377800012B40F0CE82FA78796813469B001344F7
:10378800DB000B445D3304221A70FB785A01FB6896
:10379800134403F5A0631946FB785A01FB681344E8
:1037A80003F5A063DB6843F00203CB607B681B680A
:1037B800FA781146184603F04EFCFA7879681346F1
:1037C8009B001344DB000B445C3302221A70A0E216
:1037D800FB785A01FB68134403F5A0639B6803F068
:1037E8004003002B35D0FA78796813469B001344C0
:1037F800DB000B445D3304221A70FA7879681346AB
:103808009B001344DB000B44583300221A60FB78FA
:103818005A01FB68134403F5A0631946FB785A0163
:10382800FB68134403F5A063DB6843F00203CB6035
:103838007B681B68FA781146184603F00CFCFB7885
:103848005A01FB68134403F5A0631A4640239360AA
:103858005FE2FB785A01FB68134403F5A0639B6899
:1038680003F40073002B22D0FB785A01FB68134441
:1038780003F5A0631946FB785A01FB68134403F566
:10388800A063DB6843F00203CB607B681B68FA78AF
:103898001146184603F0DFFBFB785A01FB68134416
:1038A80003F5A0631A464FF40073936031E2FB7886
:1038B8005A01FB68134403F5A0639B6803F00103F6
:1038C800002B35D0FA78796813469B001344DB0047
:1038D8000B44583300221A60FB785A01FB681344E2
:1038E80003F5A0631946FB785A01FB68134403F5F6
:1038F800A063DB6843F00203CB607B681B68FA783F
:103908001146184603F0A7FBFB785A01FB681344DD
:1039180003F5A0631A4601239360FA787968134681
:103928009B001344DB000B445D3301221A70F0E165
:10393800FB785A01FB68134403F5A0639B6803F006
:103948000803002B2BD0FB785A01FB68134403F5BE
:10395800A0631A4608239360FB785A01FB68134456
:1039680003F5A0631946FB785A01FB68134403F575
:10397800A063DB6843F00203CB607B681B68FA78BE
:103988001146184603F067FBFA78796813469B00DE
:103998001344DB000B445D3305221A70B9E1FB7850
:1039A8005A01FB68134403F5A0639B6803F01003F6
:1039B800002B35D0FA78796813469B001344DB0056
:1039C8000B44583300221A60FB785A01FB681344F1
:1039D80003F5A0631946FB785A01FB68134403F505
:1039E800A063DB6843F00203CB607B681B68FA784E
:1039F8001146184603F02FFBFA78796813469B00A6
:103A08001344DB000B445D3303221A70FB785A0120
:103A1800FB68134403F5A0631A461023936078E10A
:103A2800FB785A01FB68134403F5A0639B6803F015
:103A38008003002B2BD0FB785A01FB68134403F555
:103A4800A0631946FB785A01FB68134403F5A06389
:103A5800DB6843F00203CB607B681B68FA78114689
:103A6800184603F0F8FAFA78796813469B0013446D
:103A7800DB000B445D3306221A70FB785A01FB68A1
:103A8800134403F5A0631A468023936041E1FB7851
:103A98005A01FB68134403F5A0639B6803F4806331
:103AA800002B35D0FB785A01FB68134403F5A0635B
:103AB8001946FB785A01FB68134403F5A063DB68D9
:103AC80043F00203CB607B681B68FA7811461846FE
:103AD80003F0C1FAFB785A01FB68134403F5A063AD
:103AE8001A4610239360FB785A01FB68134403F5C8
:103AF800A0631A464FF480639360FA787968134696
:103B08009B001344DB000B445D3308221A7000E16C
:103B1800FB785A01FB68134403F5A0639B6803F024
:103B28000203002B00F0F580FB785A01FB68134470
:103B380003F5A0631946FB785A01FB68134403F5A3
:103B4800A063DB6823F00203CB60FA787968134638
:103B58009B001344DB000B445D331B78012B2CD1F5
:103B6800FA78796813469B001344DB000B445C33F6
:103B780001221A70FA78796813469B001344DB0017
:103B88000B443F331B78022B40F0AC80FA78F9786D
:103B980078680B469B000B44DB00034451331B78C9
:103BA80083F00103D8B2796813469B001344DB0005
:103BB8000B44513302461A7094E0FA787968134638
:103BC8009B001344DB000B445D331B78032B0AD1A5
:103BD800FA78796813469B001344DB000B445C3386
:103BE80002221A707EE0FA78796813469B00134423
:103BF800DB000B445D331B78042B14D1FA78796809
:103C080013469B001344DB000B445C3302221A70FA
:103C1800FA78796813469B001344DB000B443D3364
:103C280000221A705EE0FA78796813469B00134404
:103C3800DB000B445D331B78052B0AD1FA787968D1
:103C480013469B001344DB000B445C3305221A70B7
:103C580048E0FA78796813469B001344DB000B446C
:103C68005D331B78062B0AD0FA78796813469B00D7
:103C78001344DB000B445D331B78082B32D1FA78F0
:103C8800796813469B001344DB000B4458331968CA
:103C9800481C7C6813469B001344DB0023445833BC
:103CA8001860032914D9FA78796813469B001344DD
:103CB800DB000B44583300221A60FA7879681346FF
:103CC8009B001344DB000B445C3304221A7009E0A8
:103CD800FA78796813469B001344DB000B445C3385
:103CE80002221A70FB785A01FB68134403F5A0639B
:103CF8001A4602239360FA78796813469B001344A6
:103D0800DB000B445C331A78FB781946786809F0B5
:103D180031F800BF1437BD4690BD000080B588B0AB
:103D280000AF78607B681B68FB610023FB7600238B
:103D38007B6100233B617B681B681B6A7B617B6935
:103D4800DBB203F00F03FB767B695B0C03F00F0318
:103D5800FB607B691B09C3F30A03BB60FB68022B8A
:103D680003D0052B00F0828083E0BB68002B7FD056
:103D7800FA7E796813469B001344DB000B444433F6
:103D88001B68002B74D07B681868FA7E7968134624
:103D98009B001344DB000B4444331B68BA6892B29F
:103DA800194602F02CFDFA7EF97E78680B469B00D6
:103DB8000B44DB00034444331968BB681944786832
:103DC80013469B001344DB00034444331960FA7E16
:103DD800F97E78680B469B000B44DB0003444C33A8
:103DE8001968BB681944786813469B001344DB00C4
:103DF80003444C331960FB7E5A01FB69134403F5F5
:103E0800A0631A691D4B1340002B31D0FB7E5A0169
:103E1800FB69134403F5A0631B683B613B6923F00E
:103E280080433B613B6943F000433B61FB7E5A01A1
:103E3800FB69134403F5A0631A463B691360FA7ED5
:103E4800F97E78680B469B000B44DB000344503333
:103E58001B7883F00103D8B2796813469B0013449A
:103E6800DB000B44503302461A7001E000BF00E04B
:103E780000BF00BF2037BD4680BD00BF0000F81F4F
:103E880080B586B000AF78607B681B687B617B6912
:103E980003F588631B683B617B6903F588631B68CE
:103EA800FB60FB6823F02E03FB603B6903F0020311
:103EB800022B13D13B6903F00103012B0AD17B6864
:103EC8001B687A681268926922F000529A617868D1
:103ED80008F034FFFB6843F00203FB603B6903F022
:103EE8000803082B42D1FB6843F00803FB603B69D9
:103EF80003F00403042B26D17B689B69022B13D1A2
:103F08003B6903F4C023B3F5802F06D17B681B6897
:103F18000221184602F09EFD11E07B681B68012112
:103F2800184602F097FD0AE07B68DB68032B06D190
:103F38007B6903F580631A464EF660235360786800
:103F480008F0FCFE12E07B6903F588631A467B697A
:103F580003F588631B6823F02E0313607B681B68D6
:103F68007A681268926942F000529A613B6903F0DC
:103F78002003202B03D1FB6843F02003FB607B69FF
:103F880003F588631A46FB68136000BF1837BD46FF
:103F980080BD000080B584B000AF78600023FB606E
:103FA8000023BB607B68002B01D10123C8E07B683C
:103FB80093F83D30DBB2002B06D17B68002283F8F2
:103FC8003C207868FCF7DAFE7B68242283F83D20E1
:103FD8007B681B687A681268126822F001021A600E
:103FE80002F014F9B860BB68574AA2FB03239B0C84
:103FF800FB607B681B68FA685A607B681A687B6894
:104008005B6852498B4202D8FB68013309E0FB68C0
:104018004FF4967101FB03F34D49A1FB03139B0970
:10402800013313627B6819687B685B68474A93426F
:1040380012D87B685B685B00BA68B2FBF3F3C3F322
:104048000B03032B06D97B685B685B00BA68B2FB7D
:10405800F3F345E0042343E07B689B68002B0FD112
:104068007B685A6813465B001344BA68B2FBF3F3E3
:10407800C3F30B03002B0CBF01230023DBB210E0BA
:104088007B685A6813469B0013449A001344BA6825
:10409800B2FBF3F3C3F30B03002B0CBF0123002384
:1040A800DBB2002B01D001231AE07B689B68002B50
:1040B8000AD17B685A6813465B001344BA68B2FB9E
:1040C800F3F343F400430BE07B685A6813469B0004
:1040D80013449A001344BA68B2FBF3F343F4404321
:1040E800CB617B681B687A68D1697A68126A0A436F
:1040F8001A607B681B687A6811697A68D2680A4313
:104108009A607B681B687A6851697A6892690A4381
:10411800DA607B681B687A681268126842F00102EC
:104128001A607B6800221A647B68202283F83D208D
:104138007B6800221A637B68002283F83E200023F4
:1041480018461037BD4680BD83DE1B43A08601009C
:10415800D34D621080B582B000AF78607B68002BC9
:1041680001D1012321E07B68242283F83D207B686C
:104178001B687A681268126822F001021A6078686F
:10418800FCF72EFE7B6800221A647B68002283F805
:104198003D207B6800221A637B68002283F83E205A
:1041A8007B68002283F83C20002318460837BD4668
:1041B80080BD000080B588B002AFF860084611469F
:1041C8001A4603467B810B463B811346FB8000233E
:1041D8007B61FDF7D9FC7861FB6893F83D30DBB271
:1041E800202B40F0E7807B69009319230122744952
:1041F800F86800F09DFC0346002B01D00223DAE0AA
:10420800FB6893F83C30012B01D10223D3E0FB6813
:10421800012283F83C20FB681B681B6803F001033C
:10422800012B07D0FB681B68FA681268126842F015
:1042380001021A60FB681B68FA681268126822F4A7
:1042480000621A60FB68212283F83D20FB68402247
:1042580083F83E20FB6800221A64FB683A6A5A62B7
:10426800FB68BA8C5A85FB68564ADA62FB685B8D34
:104278009AB2FB681A85F8883A8979897B6901932B
:10428800BB6A00930346F86800F0DEFA0346002B89
:104298005ED0FB681B6C042B05D1FB68002283F8F9
:1042A8003C20012387E0FB68002283F83C2003239D
:1042B80081E07A69B96AF86800F0F9FC0346002BD6
:1042C8000FD0FB681B6C042B09D1FB681B68FA68CC
:1042D8001268126842F400721A6001236BE003232B
:1042E80069E0FB681A68FB685B6A581CF9684862F1
:1042F8001B781361FB681B8D013B9AB2FB681A851A
:10430800FB685B8D9BB2013B9AB2FB685A85FB68E0
:104318001B685B6903F00403042B19D1FB681B8D30
:10432800002B15D0FB681A68FB685B6A581CF96893
:1043380048621B781361FB681B8D013B9AB2FB68CE
:104348001A85FB685B8D9BB2013B9AB2FB685A8564
:10435800FB681B8D002BACD17A69B96AF86800F04C
:10436800E3FC0346002B0FD0FB681B6C042B09D120
:10437800FB681B68FA681268126842F400721A60D7
:10438800012318E0032316E0FB681B68FA6812682B
:10439800126842F400721A60FB68202283F83D20FC
:1043A800FB68002283F83E20FB68002283F83C204B
:1043B800002300E0022318461837BD4680BD00BF21
:1043C800020010000000FFFF80B58CB002AFF8605B
:1043D800084611461A4603467B810B463B81134625
:1043E800FB8000237B62FDF7CFFB7862FB6893F8C4
:1043F8003D30DBB2202B40F012827B6A00931923F8
:1044080001228449F86800F093FB0346002B01D091
:10441800022305E2FB6893F83C30012B01D102230B
:10442800FEE1FB68012283F83C20FB681B681B68DF
:1044380003F00103012B07D0FB681B68FA681268B8
:10444800126842F001021A60FB681B68FA68126879
:10445800126822F400621A60FB68222283F83D2069
:10446800FB68402283F83E20FB6800221A64FB6840
:104478003A6B5A62FB68BA8E5A85FB68664ADA62FA
:10448800FB685B8D9AB2FB681A85F8883A89798946
:104498007B6A0193BB6B00930346F86800F066FAE9
:1044A8000346002B0FD0FB681B6C042B05D1FB685F
:1044B800002283F83C200123B2E1FB68002283F844
:1044C8003C200323ACE1FB681B8D002B13D1002398
:1044D8003B62FB681B685B693B62FB681B689B6906
:1044E8003B623B6AFB681B68FA681268126842F410
:1044F80000721A6080E1FB681B8D012B1BD1FB68E1
:104508001B68FA681268126822F480621A60002335
:10451800FB61FB681B685B69FB61FB681B689B6947
:10452800FB61FB69FB681B68FA681268126842F451
:1045380000721A6060E1FB681B8D022B1BD1FB68BF
:104548001B68FA681268126822F480621A60FB68B5
:104558001B68FA681268126842F400621A60002345
:10456800BB61FB681B685B69BB61FB681B689B6977
:10457800BB61BB6940E100237B61FB681B685B6929
:104588007B61FB681B689B697B617B6934E1FB6825
:104598001B8D032B00F2EB80FB681B8D012B27D1B1
:1045A8007A6AB96BF86800F0FCFB0346002B07D069
:1045B800FB681B6C202B01D1032331E101232FE180
:1045C800FB685B6A591CFA685162FA6812681269DA
:1045D800D2B21A70FB681B8D013B9AB2FB681A8530
:1045E800FB685B8D9BB2013B9AB2FB685A8503E17D
:1045F800FB681B8D022B4AD17B6A0093BB6B0022A0
:104608000649F86800F094FA0346002B08D0032303
:1046180006E100BF020010000000FFFF04000100D7
:10462800FB681B68FA681268126842F400721A6024
:10463800FB685B6A591CFA685162FA681268126969
:10464800D2B21A70FB681B8D013B9AB2FB681A85BF
:10465800FB685B8D9BB2013B9AB2FB685A85FB688D
:104668005B6A591CFA685162FA6812681269D2B218
:104678001A70FB681B8D013B9AB2FB681A85FB68B0
:104688005B8D9BB2013B9AB2FB685A85B4E07B6AAA
:104698000093BB6B00226449F86800F049FA0346AE
:1046A800002B01D00323BBE0FB681B68FA68126883
:1046B800126822F480621A60FB685B6A591CFA6807
:1046C8005162FA6812681269D2B21A70FB681B8DBF
:1046D800013B9AB2FB681A85FB685B8D9BB2013B74
:1046E8009AB2FB685A857B6A0093BB6B00224E49DD
:1046F800F86800F01DFA0346002B01D003238FE071
:10470800FB681B68FA681268126842F400721A6043
:10471800FB685B6A591CFA685162FA681268126988
:10472800D2B21A70FB681B8D013B9AB2FB681A85DE
:10473800FB685B8D9BB2013B9AB2FB685A85FB68AC
:104748005B6A591CFA685162FA6812681269D2B237
:104758001A70FB681B8D013B9AB2FB681A85FB68CF
:104768005B8D9BB2013B9AB2FB685A8544E07A6A3A
:10477800B96BF86800F015FB0346002B07D0FB68FF
:104788001B6C202B01D103234AE0012348E0FB687E
:104798005B6A591CFA685162FA6812681269D2B2E7
:1047A8001A70FB681B8D013B9AB2FB681A85FB687F
:1047B8005B8D9BB2013B9AB2FB685A85FB681B680C
:1047C8005B6903F00403042B16D1FB685B6A591C70
:1047D800FA685162FA6812681269D2B21A70FB68F4
:1047E8001B8D013B9AB2FB681A85FB685B8D9BB2F7
:1047F800013B9AB2FB685A85FB681B8D002B7FF43E
:10480800C6AEFB68202283F83D20FB68002283F8AF
:104818003E20FB68002283F83C20002300E00223AE
:1048280018462837BD4680BD0400010080B483B017
:1048380000AF78607B6893F83D30DBB218460C37E0
:10484800BD465DF8047B704780B588B002AFF8605C
:10485800084611461A4603467B810B463B811346A0
:10486800FB80FB681B68FA681268126842F4807261
:104878001A607B6A00933B6A00224FF00111F868C6
:1048880000F056F90346002B01D0032368E0FB68CB
:104898001B687A89D2B202F0FE021A617B6A3A6A10
:1048A8003149F86800F095F90346002B07D0FB68FA
:1048B8001B6C042B01D1012352E0032350E0002399
:1048C8007B61FB681B685B697B61FB681B689B6994
:1048D8007B617B697A6A396AF86800F0E8F903460F
:1048E800002B0FD0FB681B6C042B09D1FB681B68DD
:1048F800FA681268126842F400721A6001232FE005
:1049080003232DE0FB88012B05D1FB681B683A893E
:10491800D2B21A6123E0FB681B683A89120A92B284
:10492800D2B21A617A6A396AF86800F0C0F90346A7
:10493800002B0FD0FB681B6C042B09D1FB681B688C
:10494800FA681268126842F400721A60012307E0DC
:10495800032305E0FB681B683A89D2B21A61002379
:1049680018461837BD4680BD0200010080B588B0E2
:1049780002AFF860084611461A4603467B810B468B
:104988003B811346FB80FB681B68FA681268126853
:1049980042F480621A60FB681B68FA681268126841
:1049A80042F480721A607B6A00933B6A00224FF0DF
:1049B8000111F86800F0BCF80346002B01D003236E
:1049C800AFE0FB681B687A89D2B202F0FE021A6176
:1049D8007B6A3A6A5549F86800F0FBF80346002BF1
:1049E80007D0FB681B6C042B01D1012399E003233A
:1049F80097E000237B61FB681B685B697B61FB6850
:104A08001B689B697B617B697A6A396AF86800F080
:104A18004EF90346002B0FD0FB681B6C042B09D101
:104A2800FB681B68FA681268126842F400721A6020
:104A3800012376E0032374E0FB88012B05D1FB6892
:104A48001B683A89D2B21A6123E0FB681B683A896D
:104A5800120A92B2D2B21A617A6A396AF86800F018
:104A680026F90346002B0FD0FB681B6C042B09D1D9
:104A7800FB681B68FA681268126842F400721A60D0
:104A880001234EE003234CE0FB681B683A89D2B24D
:104A98001A617A6A396AF86800F009F90346002B46
:104AA8000FD0FB681B6C042B09D1FB681B68FA68E4
:104AB8001268126842F400721A60012331E003237D
:104AC8002FE0FB681B68FA681268126842F480726B
:104AD8001A607B6A00933B6A00224FF00111F86864
:104AE80000F026F80346002B01D0032319E0FB68E9
:104AF8001B687A89D2B242F00102D2B21A617B6A8B
:104B08003A6A0A49F86800F064F80346002B07D0AF
:104B1800FB681B6C042B01D1012302E0032300E096
:104B2800002318461837BD4680BD00BF02000100AB
:104B380080B584B000AFF860B9603B601346FB7184
:104B48001FE03B68B3F1FF3F1BD03B68002B07D049
:104B5800FDF71AF80246BB69D21A3B689A4210D987
:104B6800FB6800221A63FB68202283F83D20FB685B
:104B7800002283F83E20FB68002283F83C200323B0
:104B880023E0BB681B0CDBB2012B0DD1FB681B6853
:104B98005B69DA43BB6813409BB2002B0CBF01234F
:104BA8000023DBB21A460CE0FB681B689B69DA43FA
:104BB800BB6813409BB2002B0CBF01230023DBB260
:104BC8001A46FB799A42BCD0002318461037BD46D6
:104BD80080BD80B584B000AFF860B9607A603B6092
:104BE80040E0FB681B685B6903F48063B3F5806F82
:104BF8001CD1FB681B68FA681268126842F40072DC
:104C08001A60FB681B686FF480625A61FB680422B3
:104C18001A64FB6800221A63FB68202283F83D208F
:104C2800FB68002283F83C2001233CE07B68B3F159
:104C3800FF3F17D07B68002B07D0FCF7A5FF024683
:104C48003B68D21A7B689A420CD9FB6800221A6327
:104C5800FB68202283F83D20FB68002283F83C2073
:104C6800032320E0BB681B0CDBB2012B0CD1FB68D3
:104C78001B685B69DA43BB6813409BB2002B14BF07
:104C880001230023DBB20BE0FB681B689B69DA4356
:104C9800BB6813409BB2002B14BF01230023DBB277
:104CA800002B9ED1002318461037BD4680BD80B525
:104CB80084B000AFF860B9607A6029E0F86800F065
:104CC800BAF80346002B01D0012329E0BB68B3F1F1
:104CD800FF3F1DD0BB68002B07D0FCF755FF0246ED
:104CE8007B68D21ABB689A4212D9FB681B6C43F0E6
:104CF8002002FB681A64FB6800221A63FB68202202
:104D080083F83D20FB68002283F83C20032307E05A
:104D1800FB681B685B6903F08003802BCED10023FE
:104D280018461037BD4680BD80B584B000AFF86026
:104D3800B9607A6029E0F86800F07DF80346002B36
:104D480001D0012329E0BB68B3F1FF3F1DD0BB6848
:104D5800002B07D0FCF718FF02467B68D21ABB6805
:104D68009A4212D9FB681B6C43F02002FB681A6454
:104D7800FB6800221A63FB68202283F83D20FB6849
:104D8800002283F83C20032307E0FB681B685B696B
:104D980003F00403042BCED1002318461037BD4678
:104DA80080BD80B584B000AFF860B9607A6036E045
:104DB800FB681B685B6903F01003102B14D1FB68B8
:104DC8001B686FF010025A61FB6800221A64FB68C6
:104DD80000221A63FB68202283F83D20FB6800222A
:104DE80083F83C20012322E0BB68002B07D0FCF7A6
:104DF800CBFE02467B68D21ABB689A420FD9FB6881
:104E08001B6C43F02002FB681A64FB68202283F8BD
:104E18003D20FB68002283F83C20032307E0FB6861
:104E28001B685B6903F04003402BC1D1002318467F
:104E38001037BD4680BD80B483B000AF78607B6812
:104E48001B685B6903F48063B3F5806F14D17B68DA
:104E58001B686FF480625A617B6804221A647B685D
:104E680000221A637B68202283F83D207B68002299
:104E780083F83C20012300E0002318460C37BD4688
:104E88005DF8047B7047000080B588B000AF78609B
:104E98000023FB600223FB610023BB6110237B61BD
:104EA80000233B610023BB607B68002B01D10123F9
:104EB8002BE17B68022283F841207B68954A5A637C
:104EC8007868FBF7ABFF7B681A687B681B68DB694F
:104ED80023F47B6323F00F03D3617B681B680222F2
:104EE8001A627B681B68DB69FB607B685B69022B65
:104EF80061D07B68DB68002B02D020237B6101E056
:104F080010237B617B689B68202B02D87B695B0040
:104F18007B61012001F09CFAB8607B681B69B3F5DE
:104F2800007F25D17B68DB68002B10D07B699B0054
:104F3800BA68B2FBF3F213469B0013445B001A46AF
:104F48007B685B69B2FBF3F305333B611FE07B6968
:104F5800DB00BA68B2FBF3F213469B0013445B0014
:104F68001A467B685B69B2FBF3F305333B610EE0DD
:104F7800BA687B69B2FBF3F213469B0013445B00EB
:104F88001A467B685B69B2FBF3F305333B613B6907
:104F9800614AA2FB0323DB083B613B699BB203F038
:104FA8000103BB613A69BB69D31A5B089BB2FB6119
:104FB800BB691B02BB61FB69012B02D9FB69FF2B93
:104FC8000ED90223FB610023BB617B685B6C43F055
:104FD80010027B685A647868FCF7ECFB012394E0C4
:104FE8007B681B687A681169BA691143FA690A43D0
:104FF8001A627B685B689AB27B689B6899B27B6827
:10500800DB6898B27B689B699BB203439BB20B43F6
:105018009BB213439BB243F400639BB21A46FB68EE
:105028001343FB607B681B68FA68DA617B681B6A5C
:10503800012B62D17B68394A5A637B681B68384AFE
:10504800934201D1374A01E04FF040227B681B6848
:1050580033498B4201D1334B01E04FF04023DB69E8
:1050680023F47B6323F00F03D3617B681B682C4A0E
:10507800934201D12B4B01E04FF0402302221A62E8
:105088007B681B68264A934201D1264B01E04FF00A
:105098004023DB69FB607B685B68B3F5007F03D066
:1050A8007B685B68002B03D14FF480733B6101E0A0
:1050B80000233B613B699AB27B689B6899B27B6825
:1050C800DB6898B27B689B699BB203439BB20B4336
:1050D8009BB213439BB243F400639BB21A46FB682E
:1050E8001343FB607B681B680D4A934201D10D4B4B
:1050F80001E04FF04023FA68DA617B6800225A64C5
:105108007B68012283F84120002318462037BD46DA
:1051180080BD00BFE3530008CDCCCCCCFD540008C3
:10512800003800400034004080B586B000AFF86019
:10513800B9601346FB8000237B6100233B61BB6899
:10514800002B02D0FB88002B01D101237AE0FB68F9
:1051580093F84130DBB2012B73D1BA68FB685A620D
:10516800FB681B68DB6903F007033B613B69032BA2
:1051780002D03B69052B0AD1FB885B009AB2FB6819
:105188001A85FB885B009AB2FB685A8505E0FB68C4
:10519800FA881A85FB68FA885A85FB6893F84030C4
:1051A800DBB2012B01D102234CE0FB68012283F81A
:1051B8004020FB6800225A64FB68032283F84120E0
:1051C800FB689B6B214A1A64FB689B6B204ADA6375
:1051D800FB689B6B1F4ADA6407F108037B61FB6875
:1051E800986B7B691968FB681B680C331A46FB6867
:1051F8001B8D9BB2FCF726FFFB681B68DB6903F479
:105208008063B3F5806F07D0FB681B68FA68126883
:10521800D26942F48062DA61FB681B685B6803F05C
:105228000203022B07D0FB681B68FA6812685268F1
:1052380042F002025A60FB68002283F840200023F3
:1052480000E0022318461837BD4680BDC552000845
:105258007D520008E152000880B483B000AF786046
:105268007B6893F84130DBB218460C37BD465DF8D1
:10527800047B704780B584B000AF78607B689B6B17
:10528800FB607B681B681B6803F48073002B0ED1DE
:10529800FB681B68FA681268526822F002025A60BA
:1052A800FB6800225A85FB68012283F84120F868D0
:1052B800FCF7F2F800BF1037BD4680BD80B584B05A
:1052C80000AF78607B689B6BFB60F868FCF7F6F8CA
:1052D80000BF1037BD4680BD80B584B000AF786090
:1052E8007B689B6BFB60FB681B68FA6812685268F6
:1052F80022F003025A60FB6800225A85FB680022EC
:105308005A86FB68012283F84120FB685B6C43F0F6
:105318000802FB685A64F868FCF74CFA00BF1037BB
:10532800BD4680BD80B582B000AF78607B681A68E2
:105338007B685B6A981C796848621B88D3607B68C5
:105348005B8D9BB2013B9AB27B685A857B685B8D0B
:105358009BB2002B0FD17B681A687B681B68596861
:105368004FF65F730B4053607B68012283F841203E
:105378007868FCF791F800BF0837BD4680BD80B556
:1053880082B000AF78607B68DB6A991C7A68D1626A
:105398007A681268D26892B21A807B685B8E9BB278
:1053A800013B9AB27B685A867B685B8E9BB2002B66
:1053B8000FD17B681A687B681B6859684FF69F7322
:1053C8000B4053607B68012283F841207868FCF722
:1053D800D9F900BF0837BD4680BD80B586B000AF9B
:1053E80078607B681B689B687B617B6893F84130B9
:1053F800DBB2042B3BD17B6903F00103012B09D1FC
:105408007B681B685B6803F04003402B02D1786817
:10541800FFF7B5FF7B6903F04003402B27D17B687A
:105428001B685B6803F02003202B20D17B681A6877
:105438007B681B6859684FF69F730B4053600023C5
:105448003B617B681B68DB683B617B681B689B680A
:105458003B613B697B68012283F841207B685B6C78
:1054680043F002027B685A647868FCF7A3F97B680A
:1054780093F84130DBB2032B37D17B6903F0020389
:10548800022B09D17B681B685B6803F08003802BC3
:1054980002D17868FFF746FF7B6903F00803082B01
:1054A80023D17B681B685B6803F02003202B1CD189
:1054B8007B681A687B681B6859684FF65F730B40F6
:1054C80053600023FB607B681B689B68FB60FB687C
:1054D8007B68012283F841207B685B6C43F00402FF
:1054E8007B685A647868FCF765F900BF1837BD46D1
:1054F80080BD000080B586B000AF78607B681B680F
:105508009B687B617B681B68A24A934201D1A24BCE
:1055180001E04FF040239B683B617B681B68DB69B7
:1055280003F44073B3F5007F07D07B681B68DB6921
:1055380003F44073002B40F0B3807B6903F002034F
:10554800022B0AD17B681B685B6803F08003802B01
:1055580003D10021786800F05BF93B6903F001038F
:10556800012B11D17B681B688A4A934201D18A4B6F
:1055780001E04FF040235B6803F04003402B03D168
:105588000121786800F0BEF93B6903F04003402B25
:1055980044D17B681B687F4A934201D17E4B01E06E
:1055A8004FF040235B6803F02003202B36D17B6843
:1055B8001B68784A934201D1774B01E04FF04023B2
:1055C8007A68126873498A4201D1734A01E04FF040
:1055D8004022526822F060025A607B681A687B6831
:1055E8001B6859684FF65F730B4053600023FB60DC
:1055F8007B681B68DB68FB607B681B689B68FB60DB
:10560800FB687B68012283F841207B685B6C43F070
:1056180002027B685A647868FCF7CCF87B6903F06F
:105628000803082B40F0E0807B681B685B6803F088
:105638002003202B40F0D8807B681A687B681B68A1
:1056480059684FF65F730B4053607B681B68514A7B
:10565800934201D1504B01E04FF040237A68126821
:105668004C498A4201D14C4A01E04FF0402252682D
:1056780022F060025A600023BB607B681B689B684D
:10568800BB60BB687B68012283F841207B685B6C48
:1056980043F004027B685A647868FCF78BF8A3E04F
:1056A8003B6903F00203022B11D17B681B68394A5E
:1056B800934201D1384B01E04FF040235B6803F07F
:1056C8008003802B03D10121786800F0A1F87B6961
:1056D80003F00103012B0AD17B681B685B6803F0A8
:1056E8004003402B03D10021786800F00BF97B6957
:1056F80003F04003402B32D17B681B685B6803F0E2
:105708002003202B2BD17B681A687B681B6859689B
:105718004FF69F730B4053607B681B681D4A93428A
:1057280001D11D4B01E04FF040237A6812681949F6
:105738008A4201D1184A01E04FF04022526822F013
:10574800A0025A607B68012283F841207B685B6C69
:1057580043F002027B685A647868FCF72BF83B69CF
:1057680003F00803082B40D17B681B68094A934261
:1057780001D1094B01E04FF040235B6803F020039F
:10578800202B32D17B681B68024A934206D1024B18
:1057980006E000BF00380040003400404FF04023CE
:1057A8007A68126813498A4201D1134A01E04FF01E
:1057B8004022526822F0A0025A607B681A687B680F
:1057C8001B6859684FF69F730B4053607B68012232
:1057D80083F841207B685B6C43F004027B685A6461
:1057E8007868FBF7E7FF00E000BF00BF1837BD4649
:1057F80080BD00BF003800400034004080B483B052
:1058080000AF786000BF0C37BD465DF8047B704779
:1058180080B582B000AF78600B46FB70FB78002B38
:105828002AD17B681A687B685B6A981C7968486229
:105838001B88D3607B685B8D9BB2013B9AB27B6807
:105848005A857B685B8D9BB2002B53D17B681A68A5
:105858007B681B6859684FF65F730B4053607B6821
:105868005B8E9BB2002B45D17B68012283F84120D7
:105878007868FFF7C3FF3DE07B681B681F4A9342C7
:1058880001D11F4A01E04FF040227B685B6A981CF7
:10589800796848621B88D3607B685B8D9BB2013B4B
:1058A8009AB27B685A857B685B8D9BB2002B21D1AD
:1058B8007B681B68114A934201D1114B01E04FF0FC
:1058C80040237A6812680D498A4201D10C4A01E0E6
:1058D8004FF04022526822F0A0025A607B685B8E2B
:1058E8009BB2002B06D17B68012283F8412078689F
:1058F800FFF784FF00BF0837BD4680BD0038004071
:105908000034004080B582B000AF78600B46FB7071
:10591800FB78002B2BD17B68DB6A991C7A68D162F3
:105928007A681268D26892B21A807B685B8E9BB2E2
:10593800013B9AB27B685A867B685B8E9BB2002BD0
:1059480054D17B681A687B681B6859684FF69F7347
:105958000B4053607B685B8D9BB2002B46D17B6804
:10596800012283F841207868FFF748FF3EE07B6812
:10597800DB6A991C7A68D1627A6812681D498A4282
:1059880001D11D4A01E04FF04022D26892B21A803C
:105998007B685B8E9BB2013B9AB27B685A867B68B8
:1059A8005B8E9BB2002B21D17B681B68114A934206
:1059B80001D1114B01E04FF040237A6812680D497C
:1059C8008A4201D10C4A01E04FF04022526822F08D
:1059D80060025A607B685B8D9BB2002B06D17B68A6
:1059E800012283F841207868FFF708FF00BF0837D5
:1059F800BD4680BD003800400034004080B586B008
:105A080000AF78607B68002B01D101232DE27B6811
:105A18001B6803F00103002B75D0A34B9B6803F0B0
:105A28000C03042B0CD0A04B9B6803F00C03082B31
:105A380012D19D4B5B6803F48003B3F5800F0BD143
:105A4800994B1B6803F40033002B5BD07B685B68C1
:105A5800002B57D1012308E27B685B68B3F5803FD0
:105A680006D1914A904B1B6843F4803313601DE0C4
:105A78007B685B68B3F5A02F0CD18B4A8A4B1B68F7
:105A880043F480231360884A874B1B6843F48033B0
:105A980013600BE0844A844B1B6823F48033136043
:105AA800814A814B1B6823F4802313607B685B6801
:105AB800002B13D0FCF768F8386108E0FCF764F8AD
:105AC80002463B69D31A642B01D90323CDE1764BF7
